{
  "contractName": "TokenFarm",
  "abi": [
    {
      "inputs": [
        {
          "internalType": "contract DaiToken",
          "name": "_daiToken",
          "type": "address"
        },
        {
          "internalType": "contract DappToken",
          "name": "_dappToken",
          "type": "address"
        }
      ],
      "stateMutability": "nonpayable",
      "type": "constructor"
    },
    {
      "inputs": [],
      "name": "daiToken",
      "outputs": [
        {
          "internalType": "contract DaiToken",
          "name": "",
          "type": "address"
        }
      ],
      "stateMutability": "view",
      "type": "function",
      "constant": true
    },
    {
      "inputs": [],
      "name": "dappToken",
      "outputs": [
        {
          "internalType": "contract DappToken",
          "name": "",
          "type": "address"
        }
      ],
      "stateMutability": "view",
      "type": "function",
      "constant": true
    },
    {
      "inputs": [],
      "name": "name",
      "outputs": [
        {
          "internalType": "string",
          "name": "",
          "type": "string"
        }
      ],
      "stateMutability": "view",
      "type": "function",
      "constant": true
    }
  ],
  "bytecode": "0x60806040526040518060400160405280600f81526020017f4461707020546f6b656e204661726d00000000000000000000000000000000008152506000908051906020019061004f929190610107565b5034801561005c57600080fd5b506040516106af3803806106af833981810160405281019061007e919061025d565b81600160006101000a81548173ffffffffffffffffffffffffffffffffffffffff021916908373ffffffffffffffffffffffffffffffffffffffff16021790555080600260006101000a81548173ffffffffffffffffffffffffffffffffffffffff021916908373ffffffffffffffffffffffffffffffffffffffff16021790555050506102fe565b828054610113906102cc565b90600052602060002090601f016020900481019282610135576000855561017c565b82601f1061014e57805160ff191683800117855561017c565b8280016001018555821561017c579182015b8281111561017b578251825591602001919060010190610160565b5b509050610189919061018d565b5090565b5b808211156101a657600081600090555060010161018e565b5090565b600080fd5b600073ffffffffffffffffffffffffffffffffffffffff82169050919050565b60006101da826101af565b9050919050565b60006101ec826101cf565b9050919050565b6101fc816101e1565b811461020757600080fd5b50565b600081519050610219816101f3565b92915050565b600061022a826101cf565b9050919050565b61023a8161021f565b811461024557600080fd5b50565b60008151905061025781610231565b92915050565b60008060408385031215610274576102736101aa565b5b60006102828582860161020a565b925050602061029385828601610248565b9150509250929050565b7f4e487b7100000000000000000000000000000000000000000000000000000000600052602260045260246000fd5b600060028204905060018216806102e457607f821691505b602082108114156102f8576102f761029d565b5b50919050565b6103a28061030d6000396000f3fe608060405234801561001057600080fd5b50600436106100415760003560e01c806306fdde03146100465780635eb186f814610064578063be22f54614610082575b600080fd5b61004e6100a0565b60405161005b9190610213565b60405180910390f35b61006c61012e565b60405161007991906102b4565b60405180910390f35b61008a610154565b60405161009791906102f0565b60405180910390f35b600080546100ad9061033a565b80601f01602080910402602001604051908101604052809291908181526020018280546100d99061033a565b80156101265780601f106100fb57610100808354040283529160200191610126565b820191906000526020600020905b81548152906001019060200180831161010957829003601f168201915b505050505081565b600260009054906101000a900473ffffffffffffffffffffffffffffffffffffffff1681565b600160009054906101000a900473ffffffffffffffffffffffffffffffffffffffff1681565b600081519050919050565b600082825260208201905092915050565b60005b838110156101b4578082015181840152602081019050610199565b838111156101c3576000848401525b50505050565b6000601f19601f8301169050919050565b60006101e58261017a565b6101ef8185610185565b93506101ff818560208601610196565b610208816101c9565b840191505092915050565b6000602082019050818103600083015261022d81846101da565b905092915050565b600073ffffffffffffffffffffffffffffffffffffffff82169050919050565b6000819050919050565b600061027a61027561027084610235565b610255565b610235565b9050919050565b600061028c8261025f565b9050919050565b600061029e82610281565b9050919050565b6102ae81610293565b82525050565b60006020820190506102c960008301846102a5565b92915050565b60006102da82610281565b9050919050565b6102ea816102cf565b82525050565b600060208201905061030560008301846102e1565b92915050565b7f4e487b7100000000000000000000000000000000000000000000000000000000600052602260045260246000fd5b6000600282049050600182168061035257607f821691505b602082108114156103665761036561030b565b5b5091905056fea2646970667358221220904f29dd387eb6f40cb1f5a896cc0b937d54dc80664a85b285cdccbc2593d50364736f6c63430008090033",
  "immutableReferences": {},
  "source": "// SPDX-License-Identifier: MIT\npragma solidity ^0.8.9;\n\nimport \"./DaiToken.sol\";\nimport \"./DappToken.sol\";\n\ncontract TokenFarm {\n    string public name = \"Dapp Token Farm\";\n    DaiToken public daiToken;\n    DappToken public dappToken;\n\n    constructor(DaiToken _daiToken, DappToken _dappToken) {\n        daiToken = _daiToken;\n        dappToken = _dappToken;\n    }\n}\n",
  "sourcePath": "/home/tajpouri/.pro/src/github.com/tajpouria/token-farm/src/contracts/TokenFarm.sol",
  "compiler": {
    "name": "solc",
    "version": "0.8.9+commit.e5eed63a.Emscripten.clang"
  },
  "schemaVersion": "3.4.3",
  "updatedAt": "2021-11-06T06:53:48.680Z",
  "networkType": "ethereum",
  "devdoc": {
    "kind": "dev",
    "methods": {},
    "version": 1
  },
  "userdoc": {
    "kind": "user",
    "methods": {},
    "version": 1
  }
}